:020000040800F2
:10000000000002209D400008E9400008E940000887
:10001000E9400008E9400008E9400008000000004D
:10002000000000000000000000000000E94000089F
:10003000E940000800000000E9400008E94000082D
:10004000E9400008E9400008E9400008E9400008EC
:10005000E9400008E9400008E9400008E9400008DC
:10006000E9400008E9400008E9400008E9400008CC
:10007000E9400008E9400008E9400008E9400008BC
:10008000E9400008E9400008E9400008FD280008B0
:1000900001290008E9400008F1280008E9400008AB
:1000A000E9400008E9400008E9400008E94000088C
:1000B000E9400008E9400008E9400008E94000087C
:1000C000E9400008E9400008E9400008E94000086C
:1000D000E9400008E9400008E9400008E94000085C
:1000E000E9400008E9400008E9400008E94000084C
:1000F000E9400008E9400008E9400008E94000083C
:10010000E9400008E9400008E9400008E94000082B
:10011000E9400008E9400008E9400008E94000081B
:10012000E9400008E9400008E9400008E94000080B
:10013000E94000080000000000000000112900084C
:1001400015290008E940000805290008E9400008D1
:10015000E9400008E9400008E9400008E9400008DB
:10016000E9400008E9400008E9400008E9400008CB
:10017000E9400008E9400008E940000800000000EC
:1001800000000000E940000800000000000000003E
:10019000E94000080000000000000000E9400008FD
:1001A000000000000000000000000000E94000081E
:1001B000E9400008E9400008E9400008E94000087B
:1001C000E94000080348044B834202D0034B03B1CB
:1001D00018477047680D0020680D002000000000DF
:1001E0000548064B1B1AD90F01EBA301491002D099
:1001F000034B03B118477047680D0020680D0020BD
:100200000000000010B5064C237843B9FFF7DAFF71
:10021000044B13B10448AFF300800123237010BDD9
:10022000680D002000000000F0F9010808B5054B3A
:100230001BB105490548AFF30080BDE80840FFF752
:10024000CFBF00BF000000006C0D0020F0F90108D6
:10025000A3F5803A704700BF174B002B08BF134B24
:100260009D46FFF7F5FF00218B460F461348144AC1
:10027000121A0CF033FD0E4B002B00D098470D4B9B
:10028000002B00D098470020002104000D000D48ED
:10029000002802D00C4802F04AFF0CF0BFFE2000FC
:1002A000290003F0D3F902F03FFF00BF000008006F
:1002B000000000003D36000800000220680D00200C
:1002C000C82F00202F3100080000000010B5094B96
:1002D000036003F1200280330446C0F8BC20C0F85C
:1002E000C030BC3007F07AF9204606F055FC2046B5
:1002F00010BD00BFD4860108A0F1BC00E6E7A0F164
:10030000C000E3E738B51B491B4C1C481C4D07F0E7
:1003100089F91C49194807F085F922461A491748F6
:1003200007F09DF91949154807F07CF9164913485B
:100330002A4607F094F9114807F062F922782B78E1
:1003400013490E4807F06EF9207800F0EBF820789A
:100350002978104C00F0D4FC2378022B04D000F054
:1003600033F900F0F7FCF7E70B49044807F05AF9B6
:10037000002038BD546A0108CC010020440E002042
:10038000840D00209A6A0108B16A0108B46A010864
:10039000D16A0108CE010020EA6A010810B50446BE
:1003A000FFF794FF204603F02AF8204610BDA0F185
:1003B000BC00F3E7A0F1C000F0E7000007B54FF480
:1003C00016530093032200230221054805F07AFF0B
:1003D000044A0549024803B05DF804EB02F0A2BEEE
:1003E000880D0020C8010020CD0200080FB407B519
:1003F000064B04AA1B6852F8041BD868019209F046
:100400005BFB03B05DF804EB04B07047EC07002021
:1004100008B5074B1A78074B1B789A4205D1064856
:100420001146FFF7E3FF012008BD0020FCE700BFF5
:10043000CD010020FC170020F46A0108024B18705F
:10044000062000F071BA00BF600E002038B50546E6
:10045000FFF7DEFF0128044605D104482946FFF7CF
:10046000C5FF204638BD024B1D70FAE7336B01080B
:10047000FC17002070B50D4E0D4D3478844228BF16
:10048000044622460B4829460DF01AF832780A4BEA
:10049000121BD2B21C7032702AB1291928460DF0F5
:1004A0000FF8012070BD1046FCE700BFFB130020D1
:1004B000FC1300206B1200206912002038B505469D
:1004C00010460C46FFF7C2FF012808D1072000F0B4
:1004D00047FA20B1BDE83840072000F041BA192C96
:1004E0002246294609D80B480CF0EAFF0A4B1C703B
:1004F000BDE83840042000F017BA08480CF0E0FFCF
:10050000074B1A201C70FFF7B5FF072000F00CFA0C
:10051000EEE700BF6B12002069120020FC130020E0
:10052000FB13002010B50A4B0A4C00221A702070F1
:1005300000F010FAFFF76CFF207800F07DFA064813
:1005400000F0C4FCBDE81040044800F0C5BC00BF8A
:10055000FC170020CD010020BD0400083D04000868
:100560002DE9F341164D1F4695F80080154B1446B2
:1005700098440E4600F0D6F92246014640460CF05B
:100580009FFF2B78023B1C44E4B2012F2C7003D058
:100590009DF82030012B10D100F08EFA074600F0B4
:1005A00085FA3B46009022460648314600F068FC3A
:1005B0000020287002B0BDE8F0810120FAE700BFFA
:1005C000680E0020690E00202DE9F347AE4BAF4CBA
:1005D0001A782578AA4218BF1D70012D00F0BA8044
:1005E000022D00F0DD80002D40F04B81062000F050
:1005F000B7F978B1A64B187800F03AFAB0FA80F063
:10060000400900F056FC2570062002B0BDE8F04716
:1006100000F094B9032000F0A3F9002849D000F0BD
:1006200035FA074600F038FA054600F039FA8046F8
:1006300000F048FA0646284600F051F95FFA80F9C2
:100640004EBBDFF854A2284600F06AF99AF8003051
:10065000834220D0284600F063F99AF80020014632
:100660008C48FFF7C3FE284600F05AF98A4A1378EF
:10067000984208BF431C284608BF137000F050F989
:100680000146864800F035F984483A46032100F0D7
:10069000E5F901230AE0CDF8009033464246394699
:1006A0002846FFF75DFF002EDDD0002323700320D6
:1006B000ABE7042000F054F928B3774D784B2E783F
:1006C0001F78072000F04CF9B0FA80F0400932465C
:1006D000744900903B467448744E00F011F9744B15
:1006E000327818700146704800F0B8F93378FF2B63
:1006F0001EBF2B7801332B706E4B00221A70012322
:100700002370042081E7072000F02AF950B104206B
:1007100000F00AF91A20FFF7ADFE002840F0B18082
:10072000072072E700F01CF908B100206DE70120F6
:1007300000F016F908B1012067E700F011F908B1DF
:10074000022062E7052000F00BF9002800F09980F4
:1007500005205AE7284600F003F9064670B100F07C
:10076000D3F9012808D0052000F0FAF8003818BFA6
:10077000012040002070DEE70220FBE700F0F0F8E7
:1007800000287ED0494B1B78FF2B04D128462670C9
:1007900000F08CFBC9E70223237000F0F5F9C4E7F1
:1007A000284600F0DDF80546D0B100F075F90546A1
:1007B0003D4800F0B5F80646284600F0B1F88642FC
:1007C00007D100F095F900230120237000F06EFBA3
:1007D000B6E7354800F0A4F8284600F0A1F8AFE7E6
:1007E000052000F0BDF8E0B1324E3378092B0BD96B
:1007F0002D4800F095F801462F48FFF7F7FD2846F1
:10080000257000F053FBA3E7284B27481A78284BA4
:10081000197800F023F93378013333700123237002
:1008200096E7032000F09CF800B300F02FF907468C
:1008300000F032F9054600F033F9814600F042F944
:100840000646284600F04BF85FFA80F826B1CDF84E
:10085000008033464A4622E7DFF83CA0284600F0F5
:100860005FF89AF800308342F1D0F3E600F078F8B0
:1008700000287FF45AAF012000F072F800287FF4BE
:100880005AAF02B0BDE8F087FD170020FE17002028
:10089000600E0020586B0108670E0020610E0020DA
:1008A000691200206B12002033130020FC17002077
:1008B0006A120020660E0020A46B0108024B1A7811
:1008C000024B1A70704700BFFE170020FD17002072
:1008D0000078013801288CBF002001207047007883
:1008E000431E5842584170470078B0FA80F04009E2
:1008F0007047002303700123417083700320704709
:1009000010B51C469DF808304270012B18BF022319
:100910000370224602300CF0D3FDA01CC0B210BD03
:100920004078704702307047034A012303FA00F011
:10093000136818431060704700180020044A012310
:1009400003FA00F0136823EA00031360704700BF46
:1009500000180020014B00221A6070470018002088
:10096000012303FA00F0024B1B681840704700BFD8
:1009700000180020054B1B785A1E012A02D80020BF
:10098000FFF7D2BF0BB90120FAE770470518002026
:10099000F8B507460C4615461E4606F0DBFE07EE88
:1009A000900AFAEEE07AF5EEC07AF1EE10FA21DD67
:1009B0002A46214610480CF083FD104B1F70104B47
:1009C0001D7001F0B5FE0F4B187001F0ABFE0E4B21
:1009D00018800E4B20461E70FFF77AFF20B10320CF
:1009E000BDE8F840FFF7A0BF2046FFF77DFF08B144
:1009F0000220F5E7F8BD00BF081800200718002006
:100A00003C180020061800203A1800200418002086
:100A10000FB407B5064B07491B6805AAD8680192B1
:100A200009F04AF803B05DF804EB04B0704700BF6A
:100A3000EC070020E26B010810B50446002006F028
:100A4000B5FC06F07FFE2046024A0349BDE810408F
:100A500001F00ABE910900087509000810B50446A6
:100A600001F024FE014B22781A7010BD05180020F9
:100A700010B501F063FE044618B101460248FFF7C5
:100A8000C7FF204610BD00BFE26B0108014B18787C
:100A9000704700BF07180020004870470818002062
:100AA000014B1878704700BF3C180020014BB3F988
:100AB000000070473A180020014B93F9000070477E
:100AC00006180020014B1878704700BF041800205A
:100AD0000368184708B10B6803607047704700004F
:100AE000024B002205201A70FFF71EBF3D180020A0
:100AF00008B5034805F033FB024B00221A7008BD0D
:100B0000401800203D180020014B1878704700BFA6
:100B10003D180020C36810B504460BB19B68984788
:100B2000204610BD38B50546064B45F8283B04461F
:100B300005F015FB2846FFF7EDFF204605F0DAFA31
:100B4000204638BD8886010810B50446FFF7EAFF45
:100B5000204602F054FC204610BD000010B5034BA7
:100B600003600446FFF7DEFF204610BD9C860108A7
:100B700038B5CB6804460D460BB15B689847EB6807
:100B8000E360204638BD000030B589B006F0E2FDD4
:100B900010220446002168460CF0A0F8204B009378
:100BA0006946204B039304A8FFF7E2FF032394FB5D
:100BB000F3F303EB4303E41A0234E4B207EE904A82
:100BC0009FED197AF8EE677A67EE877A17EE900A4A
:100BD00014F046FF04460D4606F02CF8134B5A6BF2
:100BE00022B993F838300BB105F0CEFD1048FFF76D
:100BF00091FF04A90E48FFF7BBFF22462B460B4886
:100C000005F095FA06F02CF804A8FFF783FF684674
:100C1000FFF780FF074B01221A7009B030BD00BFFB
:100C2000E10A0008D8810108002474494018002016
:100C3000681800203D18002010B50446FFF78EFF0D
:100C4000204602F0DCFB204610BD000010B50C4C25
:100C5000204605F027FA20460A4B40F8283B102290
:100C600000210CF03BF8012384F83830064B236058
:100C70002046064A0649BDE8104002F053BA00BFBC
:100C800040180020888601089C860108C8010020C1
:100C90005D0B00080FB407B5064B04AA1B6852F899
:100CA000041BD868019208F007FF03B05DF804EB5D
:100CB00004B07047EC07002010B50E4806F0A0FC09
:100CC0000446042000F0D2F890B90B490A78E0B24B
:100CD000531CDBB20A28094C0B7001D00D2806D139
:100CE0000023A3540420BDE8104000F0A9B8A0548C
:100CF00010BD00BF40190020621D0020631D0020B0
:100D00001FB50E4B10221870002168460BF0E6FF4D
:100D10000B4B00930B480C4B03930022694605F0E4
:100D200001FF039B13B19B68684698470749084831
:100D300005B05DF804EB06F075BC00BF801800201C
:100D4000B90C000884180020D8810108146C01082F
:100D50004019002038B5224A224C11782378994254
:100D600018BF137013B1012B02D038BD01232370BB
:100D70001D4B1B78012B14D0022000F077F80028BF
:100D8000F3D000F099F8054600F09AF8294602469B
:100D90001648FFF77FFF022000F05CF80223237063
:100DA000E3E700F0A5F80028DFD111480CF028FC9B
:100DB0000F4905460F480CF0D3FA0F481F21FFF7E3
:100DC00069FF0E4B0B481B681F22E9B2984700F0E1
:100DD00095F8052000F04AF80028C6D0DEE700BFED
:100DE00069210020CE010020801800202B6C010812
:100DF000816C01085C190020866C010870210020BC
:100E000007B50A4B0A481A780A4B1A704FF4165362
:100E1000009303220023022105F054FA064A0749F1
:100E2000034803B05DF804EB02F07CB9CE0100206A
:100E30008418002069210020C8010020CD0200088C
:100E4000034A012303FA00F0136818431060704747
:100E50006C210020044A012303FA00F0136823EAFE
:100E600000031360704700BF6C210020012303FAC8
:100E700000F0024B1B681840704700BF6C21002037
:100E800038B50C460146064815460CF019FB054BD3
:100E90001D70054B1C700220BDE83840FFF7D0BF25
:100EA0007821002078250020792500200520FFF7F3
:100EB000C7BF0620FFF7C4BF004870477821002055
:100EC000014B1878704700BF78250020014B18604F
:100ED000704700BF70210020014B1860704700BFB1
:100EE00074210020014B00221A7070477A250020DF
:100EF000014B1878704700BF7A25002000B589B0F3
:100F00001022002168460BF0E9FE164B009369465B
:100F1000154B039304A8FFF72BFE05F08BFE134B34
:100F20005A6B22B993F838300BB105F02DFC1048FC
:100F3000FFF7F0FD04A90E48FFF71AFE0D4A0B4813
:100F4000002305F0F4F805F08BFE04A8FFF7E2FD9E
:100F50006846FFF7DFFD084B01221A7009B05DF803
:100F600004FB00BFE50E0008D881010880250020A1
:100F7000A825002040420F007A25002010B50C4C17
:100F8000204605F08FF820460A4B40F8283B1022F7
:100F900000210BF0A3FE012384F83830064B2360B8
:100FA0002046064A0649BDE8104002F0BBB800BF23
:100FB00080250020888601089C860108C801002041
:100FC0005D0B00080FB407B5064B04AA1B6852F866
:100FD000041BD868019208F06FFD03B05DF804EBC4
:100FE00004B07047EC070020002000F05BBF000059
:100FF0002DE9F041BDF81C50B5F5806F06460C4652
:1010000090461F4606D322482946FFF7DBFF0620FD
:10101000BDE8F081022000F0A1FC08B10720F7E74D
:101020003146022000F0F6FC4FFA88F1022000F071
:101030002DFD3946022000F047FD0699022000F000
:1010400061FD2146022000F0C7FC8EB90B3C012C4B
:1010500012D80121022000F0A1FC7DB9012102205B
:1010600000F06EFD00F0D6FD0130D7D00020CFE7B4
:10107000012E01D10C2CECD00021EBE70021022045
:1010800000F05EFD2946022000F078FDEAE700BF8F
:101090009E6C01087047000084B038B504AC84E849
:1010A0000F000220DDE9085400F058FC20B10720B1
:1010B000BDE8384004B070470C2C15D921461148C2
:1010C000FFF780FF0C21022000F086FCA5B90B3C45
:1010D000012C15D80121022000F060FC00F09AFDDF
:1010E0000130E4D00020E3E7052CEFD82146054885
:1010F000FFF768FF0621E6E7012D01D10C2CE9D0AE
:101100000021E8E72E6D01080FB407B5064B07492B
:101110001B6805AAD868019208F0CEFC03B05DF800
:1011200004EB04B0704700BFEC070020576D0108C6
:1011300084B010B502AC84E80F009DF80D100129B1
:1011400005D0BDE81040254804B0FFF7DDBF9DF88D
:10115000293033205BB301F009F840F04101C9B2F6
:10116000332000F0F8FF19213B2000F0F4FF9DF838
:1011700027309DF82A402BB31D21112000F0EBFFF2
:10118000402000F0F3FF00F03301402000F0E3FFC7
:1011900000210F2000F0DFFF00210D2000F0DBFF19
:1011A000D4B10520BDE8104004B001F015B800F03E
:1011B000DDFF00F0BE0141F00101332000F0CBFF64
:1011C0001D21D1E71F21112000F0C5FF402000F0B4
:1011D000CDFF00F03F01D8E70620E3E7576D010897
:1011E00084B02DE9F04106AC84E80F000898BDF802
:1011F00032609DF83450BDF842700B9CDDF82880B9
:1012000000F0CAFF1D2000F0B1FF9DF831309DF8BD
:10121000301041EAC3019DF8363041EA881141EAB5
:10122000430141EA8501C9B21D2000F094FF1E2050
:1012300000F09CFFC7F3012100F00C0041EA04110B
:101240000143C9B21E2000F086FFF9B21F2000F052
:1012500082FF310A202000F07EFFF1B2212000F051
:101260007AFF25B19DF83510222000F074FF9DF81B
:1012700037306BB14B2000F079FF60F07F01C9B2CD
:101280004B2000F068FF9DF83810242000F063FF29
:10129000062C4FF031000FD100F068FF00F0F8018C
:1012A00041F00501312000F056FF0C21BDE8F0416E
:1012B000372004B000F04FBF00F058FF00F0F801F5
:1012C00041F00301312000F046FF0A21EEE78021C2
:1012D000122000F040BF4021122000F03CBF07B5B3
:1012E000122000F043FF8DF807009DF80700C0F3BF
:1012F000401003B05DF804FB2021122000F02BBF4A
:1013000008B5192000F032FF030643BF4042C0F386
:101310008500404240F3870008BD84B010B502ACA0
:1013200084E80F009DF938401A2000F01FFF002CC0
:10133000B8BF8B3C4FEA2013B8BF0019BDE810407E
:10134000A8BF8B38184400B204B0704738B50546C2
:10135000132000F00BFF04460146284600F016FF5C
:10136000204638BD0FB407B5064B04AA1B6852F8D7
:10137000041BD868019208F09FFB03B05DF804EBF2
:1013800004B07047EC07002008B528B90848FFF7FB
:10139000E9FF4FF0FF3008BD402905D90548FFF7A8
:1013A000E1FF6FF00100F6E7BDE8084000F0CEBDB8
:1013B000966D0108C26D0108F8B5074601200D467B
:1013C00014461E4600F0CAFA08B10720F8BD394697
:1013D000012000F03DFB2946012000F01BFB71B20B
:1013E000012000F053FBBDF81810012000F06CFB49
:1013F0000799012000F086FB2146012000F0ECFA5D
:1014000065B90B3C012C0DD80121012000F0C6FA72
:1014100000F0D2FB0130D8D00020D7E7012D01D158
:101420000C2CF1D00021F0E784B038B504AC84E88E
:101430000F000120DDE9085400F090FA20B10720E8
:10144000BDE8384004B070479DF91C0000F010FC66
:1014500050BB012000F082FA0028F0D10C2C15D9E5
:1014600021461248FFF77EFF0C21012000F0B4FA5C
:10147000A5B90B3C012C15D80121012000F08EFAF2
:1014800000F09AFB0130DAD00020D9E7052CEFD824
:1014900021460648FFF766FF0621E6E7012D01D148
:1014A0000C2CE9D00021E8E70120C9E72E6D0108E6
:1014B0000FB407B5064B07491B6805AAD868019207
:1014C00008F0FAFA03B05DF804EB04B0704700BF0F
:1014D000EC070020FC6D010884B070B504AC84E812
:1014E0000F0009209DF9404000F040FE06465A20BA
:1014F00000F03CFE9DF8103003F0FD03012B14BFFB
:1015000000238023054606F07F001843030600F001
:10151000F00127D5112CCBBF45F0070505F0F805E4
:10152000EDB245F0040505F00703072B12D1142C8A
:10153000A8BF1424052CB8BF0524631F1943C9B2E2
:10154000092000F008FE2946BDE870405A2004B08A
:1015500000F001BE112CA8BF1124022CB8BF022438
:10156000A31EEBE70E2CA8BF0E2444EAE47401345A
:101570002143E4E784B008B50DF1080C8CE80F00B6
:101580009DF80D10012905D0BDE80840124804B0AF
:10159000FFF78EBF9DF827309BB1F521112000F099
:1015A000DAFD402000F0E2FD00F03301402041F080
:1015B000400100F0D0FDBDE80840032004B000F079
:1015C0000BBEF721112000F0C6FD402000F0CEFD3B
:1015D00000F03F01EAE700BFFC6D010884B02DE98F
:1015E000F0418AB010AC84E80F009DF94C300893AC
:1015F00014AD0FCD6C46159EBDF85A70DDF85080C5
:101600000FC495E80F0084E80F0010AB0FCBFFF775
:1016100063FF129800F0C0FD9DF85F306BB14B2066
:1016200000F0A4FD60F07F01C9B24B2000F093FDF3
:101630009DF86010242000F08EFD1D2000F096FD26
:101640009DF859309DF8581041EAC3019DF85C306F
:1016500041EA881141EA83019DF85E3041EA430185
:10166000C9B21D2000F077FD1E2000F07FFD00F0C4
:101670000F0141EA0611C9B21E2000F06CFD390AC3
:10168000202000F068FD2120F9B200F064FD062E54
:101690004FF0310010D100F069FD00F0F80141F089
:1016A0000501312000F057FD0C2137200AB0BDE8BC
:1016B000F04104B000F04FBD00F058FD00F0F8011B
:1016C00041F00301312000F046FD0A21EDE7082139
:1016D000122000F040BD08B568B1332000F046FD8F
:1016E00000F0BE01332000F036FD19213B20BDE89B
:1016F000084000F030BD332000F038FD00F0BE019E
:1017000041F00101332000F026FD1D21EEE738B540
:10171000044622200D4600F01EFD00210E2000F0A0
:101720001AFD00210D2000F016FD012000F01EFD25
:1017300030F0F80304D100F07DFD012005F02AFD12
:1017400029462046BDE8384000F01BBD0FB407B560
:10175000064B04AA1B6852F8041BD868019208F0D3
:10176000ABF903B05DF804EB04B07047EC07002060
:1017700010B50A4C21788142024605D00848FFF78F
:10178000E5FF4FF0FF3004E0022001F001F808B956
:10179000207010BD0348FFF7D9FFF2E7382600207C
:1017A000307601088676010808B5044804F0D7FCB5
:1017B00000F043FD024B01221A7108BDC82500202C
:1017C0000826002013B5174C2379022B03D0032BD6
:1017D00019D002B010BDFFF75DFCFFF7E5FF032055
:1017E00000F0D6FF012808D000230F4A00931468A8
:1017F00019461A460120A047EBE70C4802B0BDE8A5
:101800001040FFF7A3BF204600F05AFD94F82800CF
:1018100000F047FD0123237102B0BDE8104000F045
:10182000E7BF00BF082600203C26002006760108FE
:101830002DE9F041354C267988B046B1344831461F
:10184000FFF784FF4FF0FF3008B0BDE8F081314B67
:101850001860314B31481960FFF778FF4FF4807002
:1018600005F060FF2E4B186028B92E48FFF76EFF79
:101870006FF00100E8E74FF4FA6262620E22227311
:101880000B22294B626108224FF00108A36062839A
:1018900004230522204684F820306285237084F8D2
:1018A00005802677E67784F81E8084F8216026611B
:1018B00084F81980667784F8228084F8288000F004
:1018C000FFFC2546014605F8100B1848FFF73EFFC0
:1018D0000FCD6F460FC795E80F0087E80F0094E81B
:1018E0000F00FFF7A1FDA5F1100CBCE80F006F463B
:1018F0000FC795E80F0087E80F0094E80F00FFF787
:10190000CBFB84F8048030469EE700BF0826002009
:10191000FD6E0108402600203C2600204E6F010885
:10192000C02500207B6F01082021F636B56F010825
:1019300008B5042000F02CFF012805D10648FFF768
:1019400005FF4FF0FF3008BDFFF72EFF022000F02B
:101950001FFF0020F7E700BFCB6F010838B5054631
:1019600018B90A48FFF7F2FE05E0094C217829B1C1
:101970000848FFF7EBFE4FF0FF3004E0084600F0A8
:1019800007FF08B9257038BD0348EBE7DB73010892
:1019900038260020187401085B74010838B5044625
:1019A0000D4600F01FFF0128084B06D11A78A2420D
:1019B00003D1074B00201D7638BD06481A78214612
:1019C000FFF7C4FE4FF0FF30F6E700BF38260020D7
:1019D000082600207C73010838B504460D4600F047
:1019E00001FF0128084B06D11A78A24203D1074B08
:1019F00000205D6138BD06481A782146FFF7A6FE33
:101A00004FF0FF30F6E700BF382600200826002000
:101A10001D73010838B504460D4600F0E3FE0128A9
:101A2000084B06D11A78A24203D1074B00201D6152
:101A300038BD06481A782146FFF788FE4FF0FF3080
:101A4000F6E700BF38260020082600208F74010822
:101A500038B504460D4600F0C5FE0128084B06D1F6
:101A60001A78A24203D1074B00201D7338BD0648E7
:101A70001A782146FFF76AFE4FF0FF30F6E700BF05
:101A80003826002008260020A171010838B5044638
:101A90000D4600F0A7FE0128084B06D11A78A24295
:101AA00003D1074B00205D7638BD06481A782146E1
:101AB000FFF74CFE4FF0FF30F6E700BF382600205E
:101AC00008260020BE72010838B504460D4600F015
:101AD00089FE0128084B06D11A78A24203D1074B90
:101AE00000205D8338BD06481A782146FFF72EFE98
:101AF0004FF0FF30F6E700BF382600200826002010
:101B0000E874010838B504460D4600F06BFE012864
:101B1000084B06D11A78A24203D1074B00209D60E2
:101B200038BD06481A782146FFF710FE4FF0FF3007
:101B3000F6E700BF3826002008260020A875010817
:101B400038B504460D4600F04DFE0128084B07D17C
:101B50001A78A24204D1074B002083F8225038BDE6
:101B600005481A782146FFF7F1FD4FF0FF30F6E700
:101B700038260020082600204A75010838B504469A
:101B80000D4600F02FFE0128084B06D11A78A2421C
:101B900003D1074B00205D8538BD06481A782146E1
:101BA000FFF7D4FD4FF0FF30F6E700BF38260020E6
:101BB0000826002061720108F0B589B000F012FE1D
:101BC0000128114B18D11F78012F15D10F4E06F1A6
:101BD000100500F035FB0FCD6C460FC495E80F00E3
:101BE00084E80F0096E80F00FFF7F8FC3846FFF78F
:101BF000BFFD002009B0F0BD05481978FFF7A6FD2C
:101C00004FF0FF30F6E700BF3826002008260020FE
:101C10003D710108F0B589B000F0E4FD0128114BD9
:101C200018D11F78022F15D10F4E06F1100500F0C4
:101C300007FB0FCD6C460FC495E80F0084E80F003A
:101C400096E80F00FFF7CCFA3846FFF791FD002029
:101C500009B0F0BD05481978FFF778FD4FF0FF3067
:101C6000F6E700BF3826002008260020D9700108BA
:101C7000F0B58BB0044600F0B5FD0128104B17D12C
:101C80001F78012F14D10F4E089406F110050FCDC7
:101C90006C460FC495E80F0084E80F0096E80F002B
:101CA000FFF71AFC3846FFF763FD00200BB0F0BDCC
:101CB00005481978FFF74AFD4FF0FF30F6E700BFFF
:101CC0003826002008260020FD7101080E4B1B79E4
:101CD000022B13B510D1FFF7FAFAFFF765FD0320C9
:101CE00000F056FD012809D00023084A009314682B
:101CF00019461A460120A04702B010BD044802B0A0
:101D0000BDE81040FFF722BD082600203C26002039
:101D1000F36F01082DE9F041454E3479022C8AB069
:101D200067D1FFF7D8FAFFF7DAFA012829D1FFF7D0
:101D3000E3FA96F82250ADB9FFF736FD032000F024
:101D400027FD012808D03B4B00951E682A462B46EC
:101D500029462046B04711E037480AB0BDE8F041B7
:101D6000FFF7F4BC00F03EFD0328F5D10023314A13
:101D70000093156819461A462046A8470AB0BDE8E0
:101D8000F081FFF7BDFA06F11005089007460FCD68
:101D90006C460FC495E80F0084E80F0096E80F002A
:101DA000FFF7BBFA254C80462068FFF7CFFA96F87C
:101DB000226005468EB9FFF7F7FC032000F0E8FC2F
:101DC000012808D01B4B00971F68216843462A460C
:101DD0003046B847D2E71A48BFE700F003FD0328B2
:101DE000F9D1144B00971E68216843462A4600200B
:101DF000B0E7032C14D1134804F0B1F9FFF767FCE6
:101E0000FFF7D2FC204600F0C3FC012806D00E4BA1
:101E10001B6800200AB0BDE8F04118470B489CE75A
:101E20000B4821460AB0BDE8F041FFF78FBC00BF68
:101E3000082600203C260020366E0108C025002020
:101E4000726E0108C825002040260020AD6E0108F2
:101E5000E16E01082DE97043044699460D4690460F
:101E600004F0E8FE636B23B994F838300BB104F04A
:101E70008BFC04F12806AE420BD03046FEF74AFE3A
:101E80003EB1EB681BB15B68294630469847EB686A
:101E9000636342464B46204604F049F9BDE870436F
:101EA00004F0DEBEF0B506468DB0012000F070FCF7
:101EB000012806D11E48FFF749FC4FF0FF300DB056
:101EC000F0BD1C4B1C4F18684FF48072002107F1C5
:101ED00010050AF003FF0FCD6C460FC495E80F0004
:101EE00084E80F0097E80F00FFF722F902233B7107
:101EF000E6B11022002108A80AF0F0FE0F4B08936B
:101F000030460F4B0B9313F0B9F900220D4B13F031
:101F10002FFA13F0C5FD02460B460B4808A9FFF740
:101F200099FF08A8FEF7F6FD0020C8E73046C6E78F
:101F300022700108C025002008260020C5170008CF
:101F4000D881010800408F40C8250020F0B5304CF2
:101F50002379032B8FB006460D4606D12D48FFF797
:101F6000F5FB4FF0FF300FB0F0BD042000F010FC87
:101F70000128F3D0FFF718FC0A2005F00BF9022026
:101F800000F006FC012000F003FC012801D12248EA
:101F9000E5E763791BB1012B03D000270CE01F4854
:101FA000DDE794F82100FFF796FB2946304684F8D8
:101FB0002E50FFF7ACFB676A194E08970FCE6D469F
:101FC0000FC596E80F0085E80F0094E80F00FFF7B3
:101FD000D1FA0323102200210AA823710AF07EFE01
:101FE000104B0A933846104B0D9313F047F900221B
:101FF0000E4B13F0BDF913F053FD02460B460C488F
:102000000AA9FFF727FF0AA8FEF784FD0020AAE728
:10201000082600204970010879700108A0700108A5
:1020200018260020C5170008D881010800408F40FD
:10203000C825002010B50C4C204604F033F820468B
:102040000A4B40F8283B102200210AF047FE0123EA
:1020500084F83830064B23602046064A0649BDE81E
:10206000104001F05FB800BFC82500208886010835
:102070009C860108C80100205D0B000810B50446CD
:10208000044B40F8B83BD4F8C4300BB19B68984778
:10209000204610BD748701080FB407B5064B0749E9
:1020A0001B6805AAD868019207F006FD03B05DF829
:1020B00004EB04B0704700BFEC070020B6760108BF
:1020C000F8B50D4C0D4F23681646E2681B040D460B
:1020D000136040F08001094804F084FA013D2E4469
:1020E000B54205D015F8011F384604F07BFAF7E732
:1020F000A36822681A60F8BD002700203827002056
:10210000F8B50E4C0E4F23681646E2681B040D46C8
:10211000136000F07F010A4804F064FA013D2E4488
:10212000B54206D00021384604F05CFA05F8010FEC
:10213000F6E7A36822681A60F8BD00BF00270020F8
:102140003827002010B50446FFF798FF204601F01D
:1021500056F9204610BD07B502AB012203F8011D58
:102160001946FFF7ADFF03B05DF804FB07B5012288
:102170000DF10701FFF7C4FF9DF8070003B05DF8FC
:1021800004FB0A4601460020FFF79ABF0A460146B3
:102190000020FFF7B5BF000010B513F06FF80CA3D7
:1021A000D3E9002313F00EFA13F0BAFB0446C0F390
:1021B00007410620FFF7CFFFC4F307210720FFF7F1
:1021C000CAFFE1B20820BDE81040FFF7C4BF00BF5E
:1021D0000000000080844E40144910B50A7804467F
:1021E00090B932B901230B70114BDA681B681B04DC
:1021F00013600120FFF7BAFF00F0F801214301202E
:10220000BDE81040FFF7A7BF094B2AB11A680020AC
:102210000870D96812040A60032C1A6803D0DB68BE
:1022200012041A60E5E79B68FBE700BF1428002052
:10223000E42600200120FFF7CFBF0020FFF7CCBF2E
:1022400010B504460120FFF791FFC0F3C01084428F
:1022500026D0012C13D0FFF7F0FF0120FFF786FFF7
:1022600000F07F010120FFF776FF00214020FFF7FB
:1022700072FF30214120BDE81040FFF76CBFFFF72F
:10228000DCFF2046FFF772FF60F07F01C9B22046F5
:10229000FFF761FF00214020FFF75DFF0021E9E724
:1022A00010BD10B504460120FFF7CAFF2CB1342140
:1022B0003920BDE81040FFF74EBF1221F8E70000BB
:1022C0002DE9FF47594C054604F0B4FC0121204696
:1022D00000F000FC04F0C4FC2368E2681B041360F7
:1022E000012004F057FF04F0A5FC2046002100F077
:1022F000F1FB04F0B5FC062004F04CFF2E784C4CAA
:10230000042E1CD104F096FC0021204600F0E2FBD4
:1023100004F0A6FC012004F03DFF63681A682368FE
:102320001A4214BF0126002604F084FC2046012135
:1023300000F0D0FB04F094FC012004F02BFF236894
:10234000E2683C483C4C1B0413603C4B9A681B6899
:1023500013600821002204F023F9394804F00CFF2F
:102360000020FFF739FF1022ACBB214668460AF077
:10237000B5FC69463348344C04F021F86846FEF752
:10238000C9FB10227CBB214668460AF0A7FC6946BF
:102390002E48DFF8C8802E4C04F011F86846FEF78E
:1023A000B9FB4FF0030900235F1CDBB2D8F8002013
:1023B000B2FBF9F29A421ED903EB430304EB030A82
:1023C000E05CFFF73DFF9AF802109AF80100FFF772
:1023D000C2FE3B46E8E7002168460AF07FFC1D4B41
:1023E00000940393C5E7002168460AF077FC194B77
:1023F00000940393CBE76879174CFFF721FF95F81A
:102400002800FFF74EFF4220FFF7B0FE38B9204604
:10241000FFF742FE4FF07E5004F0AEFEF3E7A868EF
:10242000FFF7BAFE304604B0BDE8F0871C27002055
:10243000E426002038270020151D00080027002072
:10244000CDCCCC3D44260020CD1C00089426002095
:10245000E4810108D8810108B6760108D001002086
:1024600073B5224D224C234E0A21284603F04CFF1F
:102470002846214D2246314600F054FE13212846BD
:1024800003F042FF2246314628461C4D00F04AFE2A
:102490004FF0FF330093062205230721284604F05E
:1024A000D3F822461649284600F03CFE154B1C2462
:1024B0002246184600210AF011FC162103F0DAFE2C
:1024C000114B2246184600210AF008FC002103F0B7
:1024D000BEFE0E4B2246002118460AF0FFFB2121CA
:1024E00002B0BDE8704003F0B2BE00BF4426002039
:1024F000C8010020616300089426002038270020CE
:102500007D200008002700201C270020E426002052
:102510000FB407B5064B04AA1B6852F8041BD86811
:10252000019207F0C9FA03B05DF804EB04B07047FC
:10253000EC07002013B5084B0024CDE9003401223C
:10254000082307212046FEF753FDFEF74DFD034B00
:102550001C7002B010BD00BF2021F63615280020E7
:1025600010B5044648B9FFF7E3F9FFF7E3FF084B5E
:102570001B682046BDE810401847012807D1FFF727
:10258000D7F9FFF7D7FF024B02201B68F2E710BD17
:10259000582800202DE9F041884615461F469DF930
:1025A000186000283BD1202A03D92648FFF7B0FF46
:1025B0002025254C2A46414620460AF081FF234B20
:1025C0001F80234B1E7026782746FEB9214BA47826
:1025D0001B78A34201D0FF2C1BD1A4F1FF035C4266
:1025E0005C4101261C4B1B78ABB9FFF7A1F9FFF743
:1025F000A1FF012E24D1194B787819492A1F1D6893
:10260000D2B22346AC46BDE8F041604700242646DE
:10261000E8E73446E6E71348FFF77AFFE9E70138D1
:1026200001280DD80C4B1B782BB9FFF781F9BDE8B9
:10263000F041FFF77FBF0B48BDE8F041FFF768BFEF
:10264000BDE8F081C3770108162800206228002029
:102650006028002064280020152800205C28002025
:102660001A280020087801080A4B10B518700A4B88
:1026700019600A4B0A491A6004460A48FFF7D8F85D
:10268000094B00225C701A70FFF752F9BDE8104048
:10269000FFF750BF64280020582800205C28002045
:1026A000952500086125000836280020F7B5184F49
:1026B0003C7834B117482146FFF72AFF012003B0C8
:1026C000F0BD1C2905D914482022FFF721FF032063
:1026D000F5E7124D0E1DAA70F6B20A460146281DF6
:1026E0002C70EE700AF0ECFEFFF722F90C4A08237A
:1026F000CDE900322146012307220E20FEF75CFEC1
:1027000031462846FEF740FE01233B702046D6E7BF
:1027100015280020D87601081977010836280020EE
:102720002021F636014BB3F90000704762280020E3
:10273000014B93F9000070476028002010B5074B4B
:102740001C78012C05D106482146FFF7E1FE204602
:1027500010BD044B18700020FAE700BF15280020B8
:1027600063770108642800200FB407B5064B0749BA
:102770001B6805AAD868019207F09EF903B05DF8BE
:1027800004EB04B0704700BFEC0700205578010847
:1027900037B501460D480E4A037803EB83052A44FA
:1027A000545C012C06D00B4B2B445B5C0370204621
:1027B00003B030BD0848642202FB030000900748C4
:1027C00002FB01020648FFF7CFFFF0E76528002073
:1027D0002B82010817820108C8030020D4010020C1
:1027E00055780108014B1878704700BF6528002014
:1027F000014B00221A7070476528002043692DE9BB
:10280000F0410D46D907044628D58168334F8268C8
:10281000334E836833483940B94202EA060204BFA6
:102820000127A760B24203EA000304BF4FF4807699
:10283000A660834204BF4FF48030A06027488142E5
:1028400005D027498A4202D0264A934206D1264B18
:10285000264A1B6852F8250001219847E2686369FF
:10286000920708D09F0706D51F4B204A1B6852F8D5
:10287000250000219847A169626963698E070AD51E
:10288000900508D5190406D5174B184A1B6852F84D
:10289000250005219847A7696669626917F0040752
:1028A00006F4806609D046B1120406D50E4B0F4AD5
:1028B0001B6852F825000721984763695FB156B13C
:1028C0001B0408D5084B094A1B6852F82500022151
:1028D000BDE8F0411847BDE8F08100BF03000004E7
:1028E0000003000800000310702800206828002062
:1028F00000210148FFF782BF00640040FFF7F8BFE6
:10290000FFF7F6BF01210148FFF778BF00680040DC
:10291000FFF7F8BFFFF7F6BF30B5036891FAA1F4EF
:10292000B4FA84F491FAA1F10325B1FA81F16400BB
:1029300005FA04F4490023EA040302FA01F11943F9
:10294000016030BD00B5002389B007286FD8DFE8EB
:1029500000F00413202D3A4754610093364B37485A
:102960001A6B42F001021A631B6B03F00103009320
:10297000009B09B05DF804FB01932F4B30481A6BA4
:1029800042F002021A631B6B03F002030193019BE6
:10299000EFE70293284B2B481A6B42F004021A63AC
:1029A0001B6B03F004030293029BE2E70393224BA9
:1029B00025481A6B42F008021A631B6B03F00803E8
:1029C0000393039BD5E704931B4B20481A6B42F0FB
:1029D00010021A631B6B03F010030493049BC8E7F7
:1029E0000593154B1A481A6B42F020021A631B6BB1
:1029F00003F020030593059BBBE706930E4B154898
:102A00001A6B42F040021A631B6B03F040030693FB
:102A1000069BAEE70793084B0F481A6B42F0800203
:102A20001A631B6B03F080030793079BA1E70B4816
:102A300004F068FC00209CE70038024000000240DF
:102A40000004024000080240000C02400010024056
:102A50000014024000180240001C02409478010853
:102A6000431C10B5044604D176220649064803F0FB
:102A7000CBFE2046002100F00DFE04F00F040120E3
:102A8000A04010BDB57801080F79010870B5044663
:102A90004B1C0E46218216D0C1F30310FFF752FFE4
:102AA00005463046FFF7DCFF238A074A656103F0DD
:102AB0000F03206052F82330A36105F1100318358D
:102AC0006360A560E56070BDFC850108B0F9100089
:102AD00000F078BE0A4619B981694069FFF71CBF4A
:102AE0000122F9E74C23F0B54343224E224F1A1D31
:102AF000324400244FF0010E1E448C4205D10146A1
:102B0000BDE8F0401D4804F0FDBB33680EFA04F543
:102B10001D422BD0136B7D690EFA03F32B4225D097
:102B2000D2F818C07B61156805B3FA6833EA02026F
:102B300003D1BA6833EA020214D10F4A916833EA2A
:102B4000010103D1D26833EA02020DD1DCF8102072
:102B5000134214BF01210221094B28461B68BDE81E
:102B6000F04018470221F7E70121F5E7013404326C
:102B7000C3E700BF74280020003C014049790108E8
:102B8000882A002006210846FFF7ACBF0521084629
:102B9000FFF7A8BF01210420FFF7A4BF01210320F4
:102BA000FFF7A0BF01210220FFF79CBF01210846CB
:102BB000FFF798BF01210020FFF794BF012910B54E
:102BC00018D11B4C838952B1A26803F00F039940BE
:102BD0001143A160836843F00103836010BDA268C4
:102BE00003F00F03994022EA0101A160836823F0FA
:102BF0000103F2E70229F1D10D4983895AB1CC686A
:102C000003F00F03012202FA03F32343CB6083682E
:102C100043F00203E1E7CA6803F00F03012404FA5A
:102C200003F322EA0303CB60836823F00203D4E7B3
:102C3000003C0140B0F90C3099B270B501F00F06BC
:102C400006F00C0404F1804404F59C3401F0030107
:102C5000A56889000F228A40C3F3031325EA020501
:102C60008B402B43A3600F4B01221968B2401143E4
:102C700019608468E50742BF996811439960A1070C
:102C800042BFD9680A43DA6090F90030002B08DBB4
:102C90005909012203F01F0302FA03F3024A42F822
:102CA000213070BD003C014000E100E02DE9F04F13
:102CB00092464A1C85B080460C4666D0002203929C
:102CC000334A344F516C41F480415164526C02F4E8
:102CD00080420392039A04F00F090C2202FB09724E
:102CE000C4F303105568062D47D8DFE805F0043A11
:102CF0003C3E40424400284E0193FFF723FE0C2146
:102D000001FB09F17A1857F801E0244FA8F80C40AC
:102D10004C21694301247B5892F90820C8F80450DB
:102D200004FA0EF44FF0000B1C4388F80020C8F89A
:102D300008B07C50132101FB05E507EB8501019BE1
:102D40004B60174BC861C3F800A0164BC1F8349014
:102D50009B681032404643F82260FFF76BFF5846ED
:102D600010E0114EC8E7114EC6E7114EC4E7114EF0
:102D7000C2E7114EC0E7114EBEE7114804F0C2FA97
:102D80004FF0FF3005B0BDE8F08F0846FAE700BF0E
:102D900000380240D4840108B52B000874280020B4
:102DA000882A002000ED00E0AD2B0008A52B0008CC
:102DB0009D2B0008952B00088D2B0008852B000803
:102DC000227901088389184A03F00F03012110B505
:102DD00001FA03F39468DB431C409460D4681C4000
:102DE000D46014682340136090F90030002B0CDB92
:102DF0005A0903F01F0301FA03F320320B4941F88B
:102E00002230BFF34F8FBFF36F8F90F90030002B4C
:102E100009DB5A09012103F01F0301FA03F36032B1
:102E2000024941F8223010BD003C014000E100E0C1
:102E3000838903F00F020C235343104A70B5446892
:102E4000D658FFF7BFFF4C210D4A6143012000FA1D
:102E500006F55058132303FB046320EA0500505085
:102E600002EB830000214160981D0C3302EB8000CF
:102E700002EB83034160596070BD00BFD484010838
:102E80007428002008B503F07DF8002008BD00007C
:102E900008B50A4B1B684BB103F0F0F904F0EFF8EA
:102EA0004FF47A72002312F0ABFD08BD03F0BEF8B8
:102EB0004FF47A73B0FBF3F008BD00BF8C2A0020FA
:102EC00010B588B003F0B6FE052101A803F0D2F9D1
:102ED0000424039B019A1A60962004F05BF9019B7D
:102EE000049A1B041360962004F054F9013CF0D1BD
:102EF0000424039B019A1A604FF4C87004F04AF945
:102F0000019B049A1B0413604FF4C87004F042F94B
:102F1000013CEED1DCE7000070B50D46A0B00446E0
:102F200003F088FE2B4622468021684609F024FCE7
:102F3000051E03DC03F094FE20B070BD094B1B6836
:102F400023B903220221084800F090FE064E002417
:102F50001DF804103046013401F06AF8A542F7D19B
:102F6000E8E700BFD42A0020B42D00200FB407B535
:102F700004A951F8040B0191FFF7CEFF03B05DF8EF
:102F800004EB04B07047000008B502F0A9FF01F09F
:102F9000ADF802F095FF02F0A3FF024B01221A6088
:102FA00008BD00BF8C2A0020002070470368012262
:102FB0001B6900211847036800221B691146184746
:102FC00003681B69184703689B69184703689B6A75
:102FD000184700290CBF6FF018000020704701202F
:102FE00070471120704770476FF01C0070476FF0FA
:102FF000150070470120704700207047704700009F
:10300000F8B5074E15460C468F18BC4205D014F88B
:10301000011B304601F00CF8F7E72846F8BD00BF69
:10302000B42D002038B58DB215F0010405D0084844
:1030300000F098FD041C18BF0124EB0605D50448D8
:1030400000F0A6FD08B144F01004204638BD00BFD2
:10305000B42D002010B5044604F06CFB204610BDD2
:1030600010B50C462AB1044800F0D0FF20700120B2
:1030700010BD104610BD00BFB42D002038B51D4650
:10308000074B0360074B1B68044633B9064800F042
:10309000EDFD2946044800F0B1FD204638BD00BFD3
:1030A0009C850108D42A0020B42D00200020704700
:1030B0000020704708B5012000F036F80C4A13686C
:1030C00010B51844EFF30881884205D3094B0C2250
:1030D0001A604FF0FF3010BD07490C6824B1074952
:1030E000096821448842F1D21060184610BD00BF23
:1030F00058060020782D0020A02A0020A42A0020B5
:10310000074C08B523680546986808F0A7FB2368B4
:10311000D86808F0A3FB0DB1FFF7D2FEFEE700BFB1
:10312000EC0700200120704708B5FFF7E9FF0120F8
:103130007047002109F010B908F0CABB704770470A
:1031400008B5FFF7FBFF08BD08B5FFF7F8FF08BD9E
:1031500010B5037803F00303012B04460CD02BB108
:1031600040F2A9520549064803F04EFB237843F08C
:1031700002032370012010BD002010BDE679010874
:103180003D7A010810B5037803F00303022B0446CF
:1031900005D040F2B1520549054803F035FB2378CC
:1031A00023F0030343F00103237010BDE679010807
:1031B000637A01083F2870B504462FDC184D55F896
:1031C00020305A1C13D1022811DCFFF771FF03468F
:1031D00058B92046FFF76AFF034630B9114E3378DD
:1031E000BFF35B8FDB0704D50F4B45F8243018463F
:1031F00070BD3046FFF7ACFF0028F5D04FF41653F2
:10320000032202210848FFF739FF3046FFF7BAFFD3
:10321000064A07490448FFF785FFE5E70023E6E78C
:1032200058050020902A00209C2A0020C801002078
:10323000FD2F000838B50546FFF7BCFF0B4B0024F7
:1032400043F8254030B909F0E3FE092303604FF04D
:10325000FF3038BD03685B699847051E04DA09F042
:10326000D7FE6D420560F2E7204638BD58050020C4
:10327000FFF7E0BF38B50C461546FFF79BFF38B99E
:1032800009F0C6FE092303604FF0FF34204638BD25
:1032900003682146DB682A469847041EF6DA09F0DF
:1032A000B7FE64420460EFE708B5131E06DA09F0C2
:1032B000AFFE162303604FF0FF3008BD04D0FFF7C8
:1032C000D9FF40EAE07008BD184608BD38B50C4685
:1032D0001546FFF76FFF38B909F09AFE092303601E
:1032E0004FF0FF34204638BD036821469B682A46CC
:1032F0009847041EF6DA09F08BFE64420460EFE79B
:10330000002A08B503DBBDE80840FFF7DFBF09F07E
:103310007FFE162303604FF0FF3008BD10B5FFF7A6
:1033200049FF044628B909F073FE092303602046CB
:1033300010BD0368DB699847041EF8DA09F068FEDF
:10334000644204600024F2E71FB504220C464023C7
:103350000DEB020101900DF109008DF808300AF023
:10336000AFF8214602A808F075FC044630B1019878
:10337000FFF7D4FF10B12046FFF7DBFE204604B074
:1033800010BDFFF7CBBF38B50C461546FFF712FF4F
:1033900038B909F03DFE092303604FF0FF342046A1
:1033A00038BD036821461B692A469847041EF6DA91
:1033B00009F02EFE64420460EFE7FFF7E4BF38B582
:1033C0000D46FFF7F7FE044630B909F021FE092348
:1033D00003604FF0FF3038BD0368DB699847002871
:1033E00014BF4FF400534FF400436B602368204632
:1033F0009B6A98472861002038BDFFF7E0BF04F0C2
:1034000099B90000034610B553F8042B044602B9DD
:10341000036022689A4204D05E220349034803F005
:10342000F3F9206810BD00BF73790108D279010853
:1034300010B504460948FFF7E5FF0023084A19467E
:1034400052F82300A04208BF42F823100133402B5A
:10345000F6D10248FFF7D6FF10BD00BF942A002026
:103460005805002010B50F48FFF7CCFF0E4B032482
:1034700053F824206AB10134402CF9D109F0C8FD79
:10348000182303600748FFF7BDFF4FF0FF342046C5
:1034900010BD4FF0FF32034843F82420FFF7B2FF7E
:1034A000F5E700BF942A00205805002010B5044617
:1034B000FFF7D8FF0028A4BF014B43F8204010BD00
:1034C0005805002070B506460C46FFF7EFFF05468D
:1034D00090B12146FFF738FF044630B9074B53F847
:1034E0002520964203D143F82500204670BD09F0FF
:1034F0008FFD09230360F8E70446F6E7580500202E
:103500000EB42DE9F04185B00546FFF7ABFF041E70
:1035100013DB0023294602A8019303F0C7FD02A88C
:1035200003F016FE1B4D064668B909F071FD132322
:10353000036045F824604FF0FF34204605B0BDE835
:10354000F04103B0704702A803F0F0FD074602A85F
:1035500037B103F0F4FD0190019B45F82430ECE70E
:1035600003F0DBFD06460028DFD0036802A8D3F88D
:10357000088003F0C7FD0B9B024601A93046C047F7
:1035800006460028E8D009F043FD7642066045F87B
:103590002470D0E75805002073B50E46184905463B
:1035A00009F06EFD044620B9FFF704FE204602B084
:1035B00070BD1449284609F063FD20B90120FFF7CA
:1035C000F9FD0124F2E71049284609F059FD20B918
:1035D0000220FFF7EFFD0224E8E72B78402B07D10C
:1035E0000422691C0DEB020009F06AFF019CDDE773
:1035F00026F400412846FFF783FF0446D6E700BFC4
:10360000EC850108F3850108E485010870477047DF
:10361000074B08499A68084810B5043A52F8044F15
:1036200041F8044F8142F9D14FF000529A6010BD29
:1036300000ED00E0FCFFFF1FC001002008B5FFF710
:10364000E7FFFFF7A1FCFFF7E2FF08BD08B5FFF7B2
:10365000DDFFBDE80840FCF755BE30B5C36891FA00
:10366000A1F4B4FA84F491FAA1F10325B1FA81F13D
:10367000640005FA04F4490023EA040302FA01F1A4
:103680001943C16030BD012A02D0022A18BF0022AE
:10369000FFF7E3BF2DE9F0410E46411C044604D17B
:1036A0003E224449444803F0AFF804F00F08434B6E
:1036B000C4F3031053F82850FFF744F906F0070746
:1036C0000446836895FAA5F1B1FA81F195FAA5F25D
:1036D0000320490000FA01F1B2FA82F223EA010361
:1036E0005200022101FA02F21343A36087425AD822
:1036F000DFE807F05E1D021DB8F1070FC6F30320D7
:103700003BD9626A2B0A93FAA3F1B1FA81F193FAD9
:10371000A3F34FF00F0EB3FA83F389000EFA01F111
:103720009B0022EA010200FA03F3134363623B4663
:10373000226895FAA5F0B0FA80F095FAA5F14FF05D
:10374000030EB1FA81F140000EFA00F0490022EABE
:1037500000028B40013F1343012F236005D86368AB
:1037600032074CBF2B43AB436360C6F301122946BB
:103770002046BDE8F041FFF786BF226A95FAA5F31F
:10378000B3FA83F395FAA5F14FF00F0EB1FA81F178
:103790009B000EFA03F3890022EA030200FA01F308
:1037A00013432362C3E767220249054803F02CF85C
:1037B0000023BDE7A27A01080F790108FC85010802
:1037C000CB7F0108431C70B506460D4604D1882204
:1037D0001B491C4803F018F806F00F021A4BC6F3F9
:1037E000031053F82240FFF7ADF804FB04F2016820
:1037F00002EB42030B40B3FBF2F3013B012B05D874
:10380000EB1E022B436809D823434360032D08D1E4
:1038100001222146BDE87040FFF735BF23EA0403CB
:103820004360012DF4D0052D01D0022D01D10222DB
:10383000EFE721460022BDE87040FFF70EBF00BF52
:10384000A27A01080F790108FC85010870B5A6B0BD
:103850003422002102A809F041FA5C2200210FA8BD
:1038600009F03CFA2A4B1D68002D4FD1294C0195D7
:1038700001261E60236C43F080532364236C03F005
:1038800080530193019B00F05DFC042302A8029386
:103890000895049600F0C0FF10B11F4803F032FDF8
:1038A000A36823F4F813A360A36823F4F813A360B8
:1038B000236F43F48073236720230F930FA84FF4E3
:1038C00080731F9300F058FD10B1144803F01AFDE7
:1038D000134B144801221A60134B03600322002388
:1038E000826041F6FF7243774360C26003614361C7
:1038F000836101F05EF910B10C4803F003FD094843
:1039000001F089FA10B10A4803F0FCFC26B070BD42
:10391000B02A002000380240FA7A01081A7B010818
:103920003C0E4742B42A002000280040437B010897
:103930005D7B0108F0B51F4B1F491C681F4A5D687D
:103940008BB00C4015401E460F4618680840844254
:103950002BD158681040854227D105F03F0001F077
:1039600051FA0490C5F3042001F04CFA0138059097
:10397000280C01F047FA44300690C4F3054001F0EA
:1039800041FA0390C4F3062001F03CFA029004F0DF
:103990007F0001F037FA01220190694601A802F088
:1039A00051FF00B100980BB0F0BD346875683C4021
:1039B0001540CAE7002800407F7F7F003FFFFF00DF
:1039C000024BD868C0F30010704700BF00280040C9
:1039D000214B224A2DE9F0411D691C689E6AC5F3FE
:1039E0000E05144018461746196811408C422ED116
:1039F000996A8E422BD1C4F3054001F003FA0746C1
:103A0000C4F3062001F0FEF9804604F07F0001F0C7
:103A1000F9F9134A13493C2313FB08004FF461637F
:103A200003FB07001368146898420B683CBF03F55A
:103A3000A83303F5C0731B1B03440B6010600868B8
:103A4000013DC00305EB9000801BBDE8F0810468D8
:103A5000866A3C40C8E700BF002800407F7F7F00A7
:103A6000AC2A0020A82A002030B591B000211422F1
:103A7000044602A8019109F031F903F0DBF82A4B62
:103A80002A4A1A6007A90122204602F02BFF0028CB
:103A900048D00D9B03B907238DF804300B9B0133ED
:103AA0008DF805300A9B8DF806300C9B443B8DF851
:103AB0000730099B8DF80830089B8DF809300024E9
:103AC000079B8DF80A308DF80B4005940694FFF79C
:103AD0007FFF9DF809109DF80A2013483C2313FB33
:103AE00001229DF808304FF4616101FB0323104A65
:103AF00013600E4B224601A99D6A01F0B3F810B184
:103B00000C4803F0FFFB002202A9074801F00AF964
:103B100010B1094803F0F6FB044A936A9D42FCD1B8
:103B200003F09EF811B030BDB42A002000280040F8
:103B3000AC2A0020767B01088D7B01080FB407B505
:103B4000064B07491B6805AAD868019205F0B4FF27
:103B500003B05DF804EB04B0704700BFEC07002031
:103B6000A47B01084368094A9B0182B0D3581A68B4
:103B7000120706D5002201921A6801925A68019232
:103B8000019A1868C0F3401002B07047002E002060
:103B90004368034A9B01D3581868C0F3C0107047AC
:103BA000002E002042681449920110B40468545059
:103BB000531882685A60C2689A600269DA60426982
:103BC0001A61026A9A610022DA84DA619A84DA85DB
:103BD0009A85B0F91A20013206D108225A61184696
:103BE0005DF8044B01F0B1BEB0F9182001320CBFF2
:103BF00004220C22F2E700BF002E002010B58160E5
:103C00000C46FFF7CFFF28B121460348BDE810401E
:103C1000FFF794BF10BD00BFA47B0108124B984270
:103C200017D0A3F54C43984215D003F58063984212
:103C300013D003F58063984211D003F58063984256
:103C40000FD003F5444398420CBF05204FF0FF30DE
:103C50007047002070470120704702207047032002
:103C600070470420704700BF00100140F0B50E46B9
:103C700087B004465B493046154602F037FC5A4986
:103C80000746284602F032FC0146384602F008FC9E
:103C90002060013004D13D225449554802F0B4FD62
:103CA000022E0CD0032D0AD04E49022002F01EFC39
:103CB000874202D14F4803F025FB002700E001278F
:103CC0004D4B206898424FF000031AD100934B4BA4
:103CD0005A6C42F010025A645B6C03F010030093BC
:103CE000009B474B984229D100230593434B5A6CC4
:103CF00042F020025A645B6C03F020030593059B9D
:103D00001CE0404A90420BD101933C4B1A6C42F4A8
:103D100000321A641B6C03F400330193019BE0E74B
:103D2000394A904240D10293344B1A6C42F48022BB
:103D30001A641B6C03F480230293029BFFF76EFF4F
:103D40000028606004DAA4222849304802F05CFDB3
:103D50002449304602F080FB2349284602F07CFBD0
:103D6000721C03D001213046FFF72CFD6B1C03D0E1
:103D700001212846FFF726FD4FF41653A3600023C8
:103D8000E360236163612362268365832046FFF736
:103D900009FF3FB11E4B1F4801221A6021464C22E9
:103DA00009F08EFB07B0F0BD1B4A90420BD1039384
:103DB000124B1A6C42F400221A641B6C03F40023A9
:103DC0000393039BBAE7154A90428AD104930B4BA5
:103DD0001A6C42F480121A641B6C03F4801304936F
:103DE000049BABE75C840108E4830108CE7B0108F7
:103DF0002A7C0108467C010800100140003802407E
:103E00000014014000440040004800407B7C010851
:103E1000D42A0020B42D0020004C00400050004067
:103E2000002808DB4209012300F01F0003FA00F01C
:103E3000014B43F82200704700E100E000280DDB51
:103E40004309012200F01F0002FA00F02033044A67
:103E500042F82300BFF34F8FBFF36F8F704700BF4F
:103E600000E100E0F7B5FFF7D9FE071E26DB144E90
:103E700056F8270010B3134CBD0163591A68120697
:103E800006D5DB68190603D50F4B01211B6898473F
:103E900063591A68920608D5DB68980605D50A4B5F
:103EA00056F827001B680021984763591A681107C4
:103EB00004D55A69D20744BF5B68019303B0F0BDD3
:103EC000DC2A0020002E0020D82A00200148FFF71D
:103ED000C9BF00BF001401400148FFF7C3BF00BFC6
:103EE000005000400148FFF7BDBF00BF004C00403C
:103EF0000148FFF7B7BF00BF004800400148FFF787
:103F0000B1BF00BF004400400148FFF7ABBF00BF96
:103F100000100140034B19604168034B43F8212016
:103F2000704700BFD82A0020DC2A002030B490E877
:103F300018002C48834233D00AD8A0F50060834291
:103F400028D000F58060834227D0002318460FE078
:103F5000254883420AD000F58060834223D0A0F533
:103F600044408342F1D1214B352001E0204B2520F4
:103F7000204DA401FAB1C9B92959CA6842F02002FA
:103F8000CA601D4A00F11001926830BC42F821302D
:103F9000FFF746BF194B2620EAE7194B2720E7E732
:103FA000184B3420E4E7184B4720E1E72959CA6849
:103FB00042F08002E4E72B59DA6849B922F0200286
:103FC000DA60DB6813F0800F09D130BCFFF736BF31
:103FD00022F08002DA60DB6813F0200FF4E730BCD7
:103FE000704700BF004C004000100140D93E00085F
:103FF000093F0008002E002000ED00E0FD3E000813
:10400000F13E0008E53E0008CD3E000838B54468A2
:1040100005462846FFF7A6FD0028FAD0A401034B69
:104020001B595868C0F3080038BD00BF002E00209F
:1040300070B5456806460C463046FFF7A9FD0028D6
:10404000FAD0AD01024B5B59C4F308045C6070BD4B
:10405000002E002008B50E4AC36D934214D008D834
:10406000A2F5806293420FD00A4803F04BF900207A
:1040700008BD094A934203D002F580629342F3D10E
:10408000BDE8084000F04AB9BDE8084000F036B984
:10409000003C00408D7C010800300140DFF830D04A
:1040A000002103E00B4B5B58435004310A480B4B93
:1040B00042189A42F6D30A4A02E0002342F8043B2F
:1040C000084B9A42F9D301F01FFEFCF7C5F8704780
:1040D00000000220FCF90108C8010020680D002042
:1040E000680D0020C82F0020FEE7704708B50B4B75
:1040F0001A6842F400721A601A6842F480621A6008
:104100001A6842F480721A60032000F009F80F2048
:10411000FEF7B8FEFFF7E9FF002008BD003C0240B3
:10412000074AD36823F4E0631B041B0C43F0BF630E
:10413000000243F4003300F4E0600343D3607047AF
:1041400000ED00E0014B01221A60704720000E4292
:1041500037B500230193184B184C1A6C42F080526B
:104160001A641B6C03F080530193019B144B0122D2
:104170001A60FEF78DFE05466368DA030BD5114B16
:104180000E4C01221A60FEF783FE054663689B030E
:104190000AD5002006E0FEF77BFE401BB0F57A7FD3
:1041A000EAD9032003B030BDFEF772FE401BB0F524
:1041B0007A7FEBD9F5E700BF00380240007000407D
:1041C00040000E4244000E422DE9F0410D460446E7
:1041D00010B90120BDE8F081444B1A6802F00F02CB
:1041E0008A4228D321688F072DD4C80740D43F4B7B
:1041F0001A6802F00F02954266D3226851076CD408
:10420000130707D53A4A2169936823F4604343EAC8
:10421000C103936000F0B8FA354B364A9B68C3F38C
:104220000313D35CD840344B18600F20FEF72AFEEE
:104230000020BDE8F081CAB21A701B6803F00F03BA
:104240009942C6D1CEE72A4B11F0040F1EBF9A68DF
:1042500042F4E0529A600E0742BF9A6842F460420C
:104260009A609A68A06822F0F00202439A60BCE764
:1042700062681F4B012A1DD11B6813F4003FA8D0B0
:104280001B4EB36823F003031343B360FEF700FE35
:1042900041F288380746B368626803F00C03B3EB59
:1042A000820FA4D0FEF7F4FDC01B4045F3D90320D4
:1042B000BDE8F081911E01291B6802D813F0007F30
:1042C000DDE713F0020FDAE7EAB21A701B6803F0B9
:1042D0000F039D427FF47DAF8FE70549E0688B684F
:1042E00023F4E05303438B608AE700BF003C0240A5
:1042F000003802404C8601085C060020044B054A49
:104300009B68C3F38223D35C034A1068D84070478C
:10431000003802405C8601085C060020044B054A18
:104320009B68C3F34233D35C034A1068D84070479C
:10433000003802405C8601085C0600200F23036001
:104340000B4B9A6802F0030242609A6802F0F00296
:1043500082609A6802F4E052C2609B68DB0803F452
:10436000E0530361034B1B6803F00F030B607047BE
:1043700000380240003C024003682DE9F74313F087
:10438000010604460BD0AA49866BD1F88C2022F096
:10439000C0623243B6FA86F6C1F88C2076099D07D2
:1043A0000BD5A348E16BD0F88C2022F0C0520A4311
:1043B0000029C0F88C2008BF012613F0040512D094
:1043C0009B49256BD1F88C20B5F5801F22F4401253
:1043D00042EA050218BFB5FA85F5C1F88C2012BF74
:1043E0006D090025012618070FD59148616BD0F89B
:1043F0008C2022F440020A43B1F5800FC0F88C20D3
:1044000000F00981002908BF0125990633D5002352
:104410000193874B874F1A6C42F080521A641B6CD1
:1044200003F080530193019B3B6843F480733B602E
:10443000FEF72EFD80463B68DA0540F1EE807C4FAA
:104440003B6F13F4407340F0FB80236C03F4407225
:10445000B2F5407F764A40F01681916823F07040B3
:1044600021F4F81120F4407001439160116FC3F3FF
:104470000B030B4313672368D90642BF6E4B94F8B6
:1044800058201A6023681A0608D56949E06CD1F8EB
:10449000942022F440020243C1F894205F0608D51C
:1044A0006349A06CD1F8942022F080620243C1F8E5
:1044B0009420D8050CD55E48616DD0F8942022F088
:1044C00000620A43B1F1006FC0F8942008BF0125D3
:1044D000990508D55649606CD1F8942022F0805295
:1044E0000243C1F894205A0500F1D180012E40F01A
:1044F000DC80524E4E4F00233360FEF7C9FC8046ED
:104500003B681B0100F125812268D00701D5A36B10
:104510001BB1910715D5E36B9BB94549D1F88430A0
:10452000D1F8840003F4403300F070600343606806
:104530000343A06843EA8013606943EA0073C1F84B
:104540008430530703D5236BB3F5801F05D01707BD
:1045500020D5636BB3F5800F1CD13549D1F8843079
:10456000D1F8840003F4403300F0E0400343606876
:104570000343A06843EA8013206943EA0063C1F85B
:104580008430D1F88C00A36A20F01F00013B034364
:10459000C1F88C3050051BD5236DB3F1005F17D1E6
:1045A00023486768D0F88410D0F8843003F0E043E3
:1045B0003B43A768C1F30141013143EA871343EA52
:1045C0004163E1684908013943EA0143C0F8843096
:1045D000110511D52369A2681B0643EA821362689C
:1045E0001343626943EA0273E2685208013A43EAFC
:1045F00002430F4AC2F8843001233360FEF748FCBF
:104600000B4E074633681A0153D4FEF741FCC01B1A
:104610000228F7D908E00126F7E6FEF739FCA0EBFF
:10462000080002287FF607AF032003B0BDE8F0833F
:104630000038024000700040E011474268004742E5
:10464000226C02F4407293423FF4FFAE3B6F4B4A40
:104650000121116023F44073002111603B673B6F1F
:10466000DB077FF5F2AEFEF713FC41F28839804696
:104670003B6F98073FF5E9AEFEF70AFCA0EB080098
:104680004845F5D9D0E7916821F4F811EDE63C48AA
:10469000216DD0F8942022F000520A43B1F1005F5E
:1046A000C0F894207FF422AF23E7B3F5006F3FF406
:1046B00020AF012D4BD1334D314E00232B60FEF73F
:1046C000E7FB074633689B004BD421684E0701D5B2
:1046D000236B1BB108071AD5636BC3B9284AA069BD
:1046E000D2F8883003F440330343E06943EA80138F
:1046F000606A43EA0063C2F88830D2F88C30E06A1E
:1047000023F4F853013843EA0023C2F88C30CA0579
:1047100014D5636DB3F1006F10D11949A269D1F8B6
:10472000883003F070631343E26943EA8213226A1C
:104730005208013A43EA0243C1F8883001232B6052
:10474000FEF7A6FB0E4C054623689B000FD5002004
:104750006BE7FEF79DFBA0EB080002287FF6D0AECA
:1047600062E7FEF795FBC01B0228ABD95CE7FEF7BA
:104770008FFB401B0228E7D956E700BF400E474297
:104780000038024070004742204908B58B6803F0AA
:104790000C03082B07D00C2B20D01D4A1D48042BDE
:1047A00018BF104608BD4A684B68496813F4800377
:1047B00014BF18481648C1F3881118BF002302F02F
:1047C0003F02A1FB000111F01BF9104B5B68C3F322
:1047D000014301335B00B0FBF3F008BD4A684B684E
:1047E000496813F4800314BF0A480948C1F38811CB
:1047F00018BF002302F03F02A1FB000111F000F9F5
:10480000024B5B68C3F30273E5E700BF0038024068
:104810000024F40000127A0003682DE9F341DF0759
:10482000044610D423689E0767D423681A0700F152
:10483000B28023685B0700F1D080A269002A40F0B3
:10484000398100201EE0974B9A6802F00C02042A7E
:1048500010D09A6802F00C02082A02D15B685D024F
:1048600008D4904B9A6802F00C020C2A0DD15A68B9
:1048700050020AD58B4B1B689903D3D56368002B74
:10488000D0D1012002B0BDE8F0816268B2F5803F6E
:1048900011D11A6842F480321A60FEF7F9FA814D9C
:1048A00006462B689A03BDD4FEF7F2FA801B6428F3
:1048B000F7D90320E6E77B4DB2F5A02F2B6807D18F
:1048C00043F480232B602B6843F480332B60E4E7B0
:1048D00023F480332B602B6823F480232B60002A81
:1048E000DBD1FEF7D5FA06462B689B039AD5FEF777
:1048F000CFFA801B6428F7D9DBE76A4B9A6812F07D
:104900000C0F10D09A6802F00C02082A02D15B68E2
:104910005F0208D5634A936803F00C030C2B11D196
:1049200053685E020ED45F4B1A68950702D5E268A1
:10493000012AA6D11A68216922F0F80242EAC102CE
:104940001A6072E7E268584BB2B101221A60FEF7B2
:104950009FFA544D06462B68980707D52B682269A5
:1049600023F0F80343EAC2032B605EE7FEF790FAF8
:10497000801B0228EFD99CE71A60FEF789FA494D9F
:1049800006462B6899077FF550AFFEF781FA801B2A
:104990000228F6D98DE76269444B7AB101221A6088
:1049A000FEF776FA3F4D06466B6F9F073FF541AF26
:1049B000FEF76EFA801B0228F6D97AE71A60FEF736
:1049C00067FA384D06466B6F98077FF532AFFEF7F2
:1049D0005FFA801B0228F6D96BE7324B1A6C12F093
:1049E000805228D101921A6C42F080521A641B6CDA
:1049F00003F080530193019B01262D4D2B68D905AF
:104A00001BD5A368274D012B27D12B6F43F0010342
:104A10002B67FEF73DFA234D074641F288382B6F8E
:104A20009B0739D5002E3FF408AF1E4A136C23F0C4
:104A30008053136401E70026DFE72B6843F480739B
:104A40002B60FEF725FA07462B68DA05D9D4FEF766
:104A50001FFAC01B0228F7D92BE7052B04D12B6FB7
:104A600043F004032B67D0E72A6F22F001022A6784
:104A70002A6F22F004022A67002BCAD1FEF708FA37
:104A800041F2883807462B6F9807CBD5FEF700FA1E
:104A9000C01B4045F7D90CE7FEF7FAF9C01B4045AB
:104AA000BDD906E70038024000004742800E474269
:104AB00000700040234DAB6803F00C03082B3FF45B
:104AC000E0AE214E0023022A33602DD1FEF7E0F93B
:104AD00007462B68990121D4226AE3691343626A6D
:104AE00043EA8213E26A43EA0263226B43EA0273F7
:104AF000A26A144C5208013A43EA02436B60012354
:104B00003360FEF7C5F9054623689A013FF599AE73
:104B1000FEF7BEF9401B0228F6D9CAE6FEF7B8F93F
:104B2000C01B0228D5D9C4E6FEF7B2F904462B68AB
:104B30009B017FF586AEFEF7ABF9001B0228F6D984
:104B4000B7E600BF00380240600047427047026885
:104B500038B5D36823F0A003D3600446FEF798F974
:104B600005462368DB689B0601D5002038BDFEF7AB
:104B70008FF9401BB0F57A7FF3D9032038BD38B5E3
:104B80000368DA685206044601D5002038BD4FF0AC
:104B9000FF32DA60FEF77CF905462368DB685B06C6
:104BA000F3D4FEF775F9401BB0F57A7FF5D90320F1
:104BB00038BD38B50446B8B1437F03F0FF0213B9DE
:104BC0000277FFF7C3FF022363772368CA225A6282
:104BD00053225A622046FFF7D2FF2368054628B1C8
:104BE000FF225A620423637701252EE09A68206928
:104BF00022F4E00222F040029A606268996802435F
:104C0000606902430A439A60E2681A611A69A168FE
:104C100042EA01421A61DA6822F08002DA609B6897
:104C20009B0605D42046FFF792FF08B12368D7E71B
:104C30002368A1691A6C22F480221A641A6C0A4350
:104C40001A64FF225A6201236377284638BD002385
:104C5000092803D840EA0310C0B270470A3801336C
:104C6000C0B2F5E7F8B5037F012B05464FF0020609
:104C700030D00123037746774B78C8788E780C784C
:104C8000002A48D1DA0603D523F010030A334B700B
:104C9000FFF7DDFF07464878FFF7D9FF02463046A9
:104CA000FFF7D5FF40EA443040EA074040EA0224DB
:104CB0002B68CA225A6253225A622846FFF75FFFC6
:104CC0002B68064640B1FF225A6204236B7700230B
:104CD0002B7701263046F8BD24F07F4424F0C00431
:104CE0005C60DA6822F08002DA609B689B060AD476
:104CF0002846FFF72CFF30B12B68FF225A620423AD
:104D00006B772E77E5E72B68FF225A6201236B77DA
:104D100000232B77DEE71B0243EA0040304340EAE2
:104D20004434C5E7F8B5037F012B06460F464FF024
:104D300002052FD0012303770368457708784D7863
:104D40008C789B6842BB13F0400308BFCB70FFF721
:104D50007EFF01462846FFF77AFF02462046FFF70E
:104D600076FFFB7840EA034040EA014040EA022433
:104D70003368CA225A6253225A623046FFF7FFFE56
:104D800033680546A8B1FF225A62042373770023D3
:104D9000337701252846F8BD13F040034FEA052577
:104DA00008BFCB7045EA00402043CC7840EA044479
:104DB000DEE704F07F3424F0FE441C609A68386912
:104DC00022F480229A60FA68996802430A439A6042
:104DD000DA6822F08002DA609B689B060AD43046CB
:104DE000FFF7B5FE30B13368FF225A6204237377B0
:104DF0003577CEE73368FF225A62012373770023A9
:104E00003377C7E7030903EB830300F00F0000EBE0
:104E10004300C0B27047037F012B4FF002030FD055
:104E200043770368CA225A6253225A629A6842F050
:104E300020029A60FF225A620123437700230377FE
:104E40001846704703685A6822F0E0025A604268C8
:104E5000B2F5827F0AD18268B2F5004F02D0B2F576
:104E6000806F03D11A6822F040021A60826AB2F59C
:104E7000005F09D11A6822F400521204120C1A6061
:104E80001A6842F400521A60012380F8513000235E
:104E900080F850300320704770B505460C46164622
:104EA00029688B689B0701D5002070BD621CF8D073
:104EB00024B92846BDE87040FFF7C4BFFDF7E8FFFE
:104EC000801B8442ECD8F4E72DE9F041DDF818802E
:104ED00005460F4616461C462B6898683840B04277
:104EE00002D10020BDE8F081621CF6D024B928462A
:104EF000BDE8F041FFF7A6BFFDF7CAFFA0EB080031
:104F00008442E9D8F3E713B50B46009280210022D2
:104F10000446FFF7D9FF20B1636D43F020036365BA
:104F2000032002B010BD704738B5044600283BD0BE
:104F300090F8513003F0FF021BB980F85020FFF7C2
:104F4000F2FF2168A568A06AA269022384F85130A3
:104F50000B6823F040030B6063682B43E5682B4329
:104F600025692B4365692B43E5692B43256A2B4350
:104F7000034302F400752B430B60120C636AB0F517
:104F8000005F02F0040242EA030208BFE36A4A60DB
:104F900008BF0B61CB6923F40063CB6100200123C0
:104FA000606584F8513038BD012038BD2DE9F341EA
:104FB0001E4690F85030012B04460D46904600F0F6
:104FC000BA80012380F85030FDF762FF074694F85D
:104FD0005100C0B2012840F0AC80002D5FD0B8F184
:104FE000000F5CD0032384F8513000236365A36372
:104FF000A4F83680A387E38763642364A3682268E8
:105000002563B3F5004F08BF1368A4F8348004BFCC
:1050100043F480431360A36AB3F5005F09D11368BA
:1050200023F400531B041B0C1360136843F4005358
:10503000136013685B065EBF136843F040031360A0
:10504000E368B3F5006F63683AD11BB1E38E9BB29E
:10505000012B06D135F8023BD360E38E013B9BB2B6
:10506000E386E38E9BB283B93A4631462046FFF78A
:1050700013FF98B93A4631462046FFF744FF00280F
:1050800040D020236365012009E023689A689007D7
:1050900003D535F8022BDA60DFE74EB90320012390
:1050A00084F85130002384F8503002B0BDE8F0811C
:1050B000711CD6D0FDF7ECFEC01B8642D1D8EDE7BF
:1050C0001BB1E38E9BB2012B06D115F8013B137384
:1050D000E38E013B9BB2E386E38E9BB2002BC3D0F1
:1050E00023689A68920703D515F8012B1A73EFE726
:1050F000002ED3D0731CEFD0FDF7CAFEC01B864232
:10510000EAD8CBE7A36833B901932368DA68019240
:105110009B680193019BA36AB3F5005F01BF2268FE
:10512000136843F480531360606D003018BF012092
:10513000B5E70220B3E70220B7E72DE9F04385B0D9
:1051400099460023ADF80A3090F850300C9E012BA0
:1051500004460D46904600F04581012380F850300A
:10516000FDF796FE94F851306168DBB2012B0746DB
:105170000AD0B1F5827F40F03381A268002A40F066
:105180002F81042B40F02C81002D00F01B81B8F101
:10519000000F00F01781B9F1000F00F0138194F8AF
:1051A0005130C4F83880012B04BF052384F85130F6
:1051B0000023636523646364A36AA4F83E90B3F597
:1051C000005FA4F83C902563A4F83690A4F83490CE
:1051D000236809D11A6822F400521204120C1A60D2
:1051E0001A6842F400521A601A6850065EBF1A68C4
:1051F00042F040021A60E268B2F5006F6BD119B15B
:10520000E28E92B2012A06D135F8022BDA60E38EE3
:10521000013B9BB2E3864FF00109E38E9BB2B3B929
:10522000E38F9BB29BB9A36AB3F5005F40F0AE80F9
:1052300001220097334611462046FFF745FE00281D
:1052400000F09D80636D43F00203636535E0B9F1C2
:10525000000F1BD0E38E9BB2C3B1226893689907FD
:1052600014D535F8023BD360E38E013B9BB2E38655
:10527000E38E1FFA83F9B9F1000F29D1A16AB1F5C4
:10528000005F03D1116841F480511160E38F9BB23C
:1052900063B123689A68D20708D5DB6828F8023B17
:1052A000E38F013B9BB2E3874FF00109701CB4D040
:1052B000FDF7EEFDC01B8642AFD80325012384F81D
:1052C0005130002384F85030284605B0BDE8F08303
:1052D0004FF00009DAE719B1E28E92B2012A06D145
:1052E00015F8012B1A73E38E013B9BB2E3864FF056
:1052F0000109E38E9BB21BB9E38F9BB2002B92D0C6
:10530000B9F1000F21D0E38E9BB2F3B123689A6804
:1053100091071AD529781973E38E013B9BB2E38676
:10532000E38E1FFA83F96A1CB9F1000F0AD1A16A52
:10533000B1F5005F04D12068016841F4805101603B
:10534000154602E015464FF00009E38F9BB273B19A
:1053500023689A68D2070AD5DB6888F80030E38FA3
:10536000013B9BB2E38708F101084FF00109731C70
:10537000BFD0FDF78DFDC01B8642BAD89DE72368DC
:10538000DB689BB2ADF80A30BDF80A302268956838
:1053900015F0100507D0636D43F0020363654FF607
:1053A000EF73936001253A4631462046FFF774FDBE
:1053B000002882D13A4631462046FFF7A4FD18B1B5
:1053C00020236365012579E7A368002B7FF476AF7E
:1053D00003932368DA6803929B680393039B6DE74A
:1053E00002256BE702256FE72DE9FF411D460023EB
:1053F000ADF80E304368B3F5827F04460E46904602
:105400000CD1836853B9042380F8513013460095BA
:105410000A46FFF792FE04B0BDE8F08194F85030E0
:10542000012B00F0CD80012384F85030FDF730FDD2
:10543000074694F85100C0B2012840F0BF80002E0A
:105440007DD0B8F1000F7AD0042384F851300023C6
:1054500063652363A4F83E80A386E38623646364C4
:10546000A36AA663B3F5005FA4F83C8023680DD15E
:105470001A6822F400521204120C1A601A6842F4DC
:1054800000521A60E28F013A92B2E287A268B2F546
:10549000004F02BF1A6822F480421A601A6851064F
:1054A0005EBF1A6842F040021A60E368CBB1E38F36
:1054B0009BB2D3B123689A68D0074FD5DB6826F832
:1054C000023BE38F013B9BB2E387F0E723689A68D6
:1054D000D20732D51B7B06F8013BE38F013B9BB221
:1054E000E387E38F9BB2002BF0D1A36AB3F5005F93
:1054F00045D12268136843F480531360012200975A
:105500002B4611462046FFF7DFFCB8B9E368B3F538
:10551000006F23684FF001020BBFDB681B7B3380F9
:10552000337000972B4611462046FFF7CDFCF8B1AB
:10553000636D43F00203636500E03DB9032001237E
:1055400084F85130002384F8503064E76B1CC8D0D5
:10555000FDF79EFCC01B8542C3D8EFE7002DEDD0C0
:10556000691CA4D0FDF794FCC01B85429FD8E5E7D9
:105570002368DB689BB2ADF80E30BDF80E3063686F
:10558000B3F5827F23680AD1A268B2F5004F02D03A
:10559000B2F5806F03D11A6822F040021A609A684F
:1055A000D20606D5626D42F0020262654FF6EF72D6
:1055B0009A60606D003018BF0120C0E70220BEE78E
:1055C000022028E7704700002E4A0368904212D05C
:1055D000B0F1804F0FD0A2F57C4290420BD002F583
:1055E0008062904207D002F58062904203D002F5BB
:1055F000784290421DD14A6823F070031343214A38
:10560000904204D1CA6823F44073134328E0B0F1F8
:10561000804FF7D01C4A9042F4D002F5806290424D
:10562000F0D002F580629042ECD002F578429042D0
:10563000E8D0164A9042E5D002F580629042E1D06F
:1056400002F580629042DDD0A2F598329042D9D026
:1056500002F580629042D5D002F580629042D1D0AE
:1056600003608B68C3620B688362064B984206D066
:1056700003F58063984202D00123436170470B69B0
:105680000363F9E7000001400004004000400140CE
:1056900010B50446A0B190F8393003F0FF021BB9F1
:1056A00080F83820FFF78EFF022384F83930206815
:1056B000211DFFF789FF012384F83930002010BD38
:1056C000012010BD036A10B501248C4023EA0403B5
:1056D0000362036A8A401A43026210BD10B5044691
:1056E00001220068FFF7EEFF2368084A934203D0C7
:1056F00002F58062934203D15A6C42F400425A642C
:105700001A6842F001021A60002010BD000001403A
:10571000FFF7E4BF2DE9F0470668C2683369C16945
:1057200023F4405313433361044683680069F268ED
:105730000343606922F41642034322F00C020B4338
:105740001343F3607369A26923F440731343B1F503
:10575000004F73617A4B7CD19E4203D003F5806386
:105760009E4244D1FEF7DAFD192505FB00F360687F
:105770004FF064094000B3FBF0F3B3FBF9F34FEAD9
:105780000318FEF7CBFD636868435B00B0FBF3F7DB
:10579000FEF7C4FD636868435B00B0FBF3F3B3FB43
:1057A000F9F309FB1373DB003233B3FBF9F35B004E
:1057B00003F4F877FEF7B2FD626868435200B0FB6D
:1057C000F2FAFEF7ABFD636868435B00B0FBF3F3EE
:1057D000B3FBF9F309FB13A3DB003233B3FBF9F39B
:1057E00003F0070343443B44B360BDE8F087FEF792
:1057F00085FD192505FB00F360684FF06409400042
:10580000B3FBF0F3B3FBF9F34FEA0318FEF776FDB1
:10581000636868435B00B0FBF3F7FEF76FFD6368F6
:1058200068435B00B0FBF3F3B3FBF9F309FB1373BD
:10583000DB003233B3FBF9F35B0003F4F877FEF7D8
:105840005DFD626868435200B0FBF2FAFEF756FD58
:10585000B9E79E4202D03B4B9E4240D1FEF75EFD2F
:10586000676819254FF0640905FB00F3BF00B3FB1F
:10587000F7F3B3FBF9F31F01FEF750FD63686843CC
:105880009B00B0FBF3F8FEF749FD636868439B009B
:10589000B0FBF3F3B3FBF9F309FB13831B013233C2
:1058A000B3FBF9F303F0F008FEF738FD62686843D4
:1058B0009200B0FBF2FAFEF731FD636868439B008B
:1058C000B0FBF3F3B3FBF9F309FB13A31B01323372
:1058D000B3FBF9F303F00F0343EA080383E7FEF792
:1058E0000DFD676819254FF0640905FB00F3BF0043
:1058F000B3FBF7F3B3FBF9F31F01FEF7FFFC63689B
:1059000068439B00B0FBF3F8FEF7F8FC636868435C
:105910009B00B0FBF3F3B3FBF9F309FB13831B010B
:105920003233B3FBF9F303F0F008FEF7E7FC6268EB
:1059300068439200B0FBF2FAFEF7E0FCBDE700BF5F
:105940000010014000140140704710B5044640B3F8
:1059500090F8393003F0FF021BB980F83820FFF7C8
:10596000F3FF2268242384F83930D36823F40053EA
:10597000D3602046FFF7CEFE23681A6922F49042D6
:105980001A615A6922F02A025A61DA6842F4005216
:10599000DA6000202023E06384F8393084F83A305C
:1059A00010BD012010BD00000FB407B5064B07491C
:1059B0001B6805AAD868019204F07EF803B05DF870
:1059C00004EB04B0704700BFEC070020A77C01087F
:1059D0000268136823F0400310B513600446FFF714
:1059E000A3FA10B1054801F08DFCA36823B9226821
:1059F000136843F04003136010BD00BFE07C010852
:105A00002DE9F04F884687B004465949BDF94060FA
:105A1000404615461F4600F069FD56498146284616
:105A200000F064FD54490190384600F05FFD534991
:105A30008246304600F05AFD019B8346194648468F
:105A400000F02EFD59468146504600F029FD0146E2
:105A5000484600F025FDE065013004D16F22484939
:105A6000484800F0D1FE484BE26D9A424FF00003E7
:105A70004BD10293454B5A6C42F480525A645B6C92
:105A800003F480530293029B232384F8583038494F
:105A9000404600F0E1FC3749284600F0DDFC36497D
:105AA000384600F0D9FC731CA4F86050A4F862805A
:105AB000A4F86470A4F8666057D03049304600F00E
:105AC000CBFC4FF48023A361E36D236001354FF4D9
:105AD000827308BF4FF4004263604FF03803E36104
